:100000000C9434000C943E000C943E000C943E0082
:100010000C943E000C943E000C943E000C943E0068
:100020000C943E000C943E000C943E000C943E0058
:100030000C943E000C943E000C943E000C943E0048
:100040000C943E000C943E000C943E000C943E0038
:100050000C943E000C943E000C943E000C943E0028
:100060000C943E000C943E0011241FBECFEFD8E04C
:10007000DEBFCDBF0E9440000C947F000C940000B6
:100080003D9A3C9A3B9A239A229A219A459829981C
:100090002B9A449A2A9A439A2AEA3AEA8AEA9AE2F4
:1000A0002150304080409040D9F72A98299A24E581
:1000B00035E08AEC9FE12150304080409040D9F7F4
:1000C00000C000C00000459A2A9A43982B982AEA5B
:1000D0003AEA8AEA9AE22150304080409040D9F7CB
:1000E0004498439A24E535E08AEC9FE12150304062
:1000F00080409040D9F700C000C00000C7CFF894FE
:02010000FFCF2F
:00000001FF
